:100000001FC043C042C041C040C03FC03EC03DC011
:100010003CC0A2C33AC039C038C037C036C035C0B2
:1000200034C033C032C031C030C02FC02EC02DC04C
:10003000EEC39BC42AC029C028C027C026C05F05C4
:1000400011241FBECFEFCDBFDFE3DEBF1EE3A0E074
:10005000BEE3E6E5FFE002C005900D92A432B107D1
:10006000D9F72EE3A4E2BEE301C01D92A93BB2077B
:10007000E1F710E0C0E2D0E003C02197FE012DD7E8
:10008000CF31D107D1F74CD541C7BACFE091393E36
:10009000F0913A3E309741F010928D3E10928C3E96
:1000A000099580918C3E089580E00895E0913B3E53
:1000B000F0913C3E309759F030918F3E20918E3E2A
:1000C000321728F010928F3E80938E3E0994089547
:1000D000DC019091AB3E992361F0699FB00111243E
:1000E000672F949FA0011124452F929F9001112406
:1000F000232F3091B13EE091AC3EF091AD3E809126
:10010000AE3E38131AC0CD01880F991F8A0F9B1F6E
:100110008E0F9F1FE091AE3EE80FF92FF11D608317
:10012000E091AF3EE80FF92FF11D40833091B03ED2
:10013000830F911DFC0120830895CD01880F991F25
:10014000880F991F8E0F9F1FFC01E30FF11D108276
:10015000E1CF0F931F938FB7F8946091210A90918C
:100160000B0A2091343E3091353E4091363E5091FD
:10017000373E8FBFEEEFE61B91FF06C0E43020F460
:100180002F5F3F4F4F4F5F4FA8EFB7E07AD6AB01DD
:10019000BC018E2F90E0B0E0A0E023E0880F991F13
:1001A000AA1FBB1F2A95D1F78A019B01080F191FAF
:1001B0002A1F3B1FC901B8011F910F9108950F938A
:1001C0001F93CF93DF93CDB7DEB72797CDBFDEBFA9
:1001D0008091AC3E9091AD3E892B09F495C0809101
:1001E000AA3E82310CF090C0B4DF0091B23E109173
:1001F000B33E2091B43E3091B53E601B710B820B33
:10020000930B623371058105910570F3F894809129
:10021000A83E9091A93E89839A83E091AC3EF091EB
:10022000AD3EDF01119680818F831B82E091B63E47
:10023000F091B73E90818091B83E982B9E8390813B
:10024000809589238D838D818C838F8187FF02C068
:100250008E818C835E816D814F813C812B81898170
:100260009A815083262F308300C046FD252F60835E
:1002700000C05083362F208300C045FD352F60839A
:1002800000C05083262F308300C044FD252F60839B
:1002900000C05083362F208300C043FD352F60837C
:1002A00000C05083262F308300C042FD252F60837D
:1002B00000C05083362F208300C041FD352F60835E
:1002C00000C05083262F308300C040FD252F60835F
:1002D00001975083362F20834D9147FD352F608342
:1002E00001F6E093B63EF093B73E4F833C832B83F9
:1002F00089839A8378942DDF6093B23E7093B33EE6
:100300008093B43E9093B53E2796CDBFDEBFDF917C
:10031000CF911F910F910895E0E1F8E091859066EB
:10032000918792E09093903E8093483E1092493E90
:10033000089581E08093493E1092483E90911B08B9
:1003400091FF10C010924A3EE091443EF091453E2C
:10035000099580932D3E85E08093903E83E08093C5
:100360001A08089510924B3E8093463E86E0F4CFE3
:100370000895E0918F3E80918E3EE81730F4F0E0D2
:10038000E45BF14C808190E008958FEF9FEF08953A
:1003900090918F3E80918E3E2FEF3FEF981748F45B
:1003A000E92FF0E0E45BF14C208130E09F5F909317
:1003B0008F3EC9010895FF920F931F93CF93DF9350
:1003C0008C0181E99EE3E4DF8093243EF12C01500F
:1003D0001109CF2DD0E0C017D10794F581E99EE334
:1003E000D7DF2091243E2C0F3D2F311D20313105C8
:1003F00028F5A091243EE091243EEC0FFD2FF11D45
:10040000EC5EF14CAC0FBD2FB11DAF5FB14C9C91B8
:1004100090952081922390839091243EE091243EF8
:10042000EC0FFD2FF11DEC5EF14CC90FD11DCF5F1C
:10043000D14C988198238081892B8083F394C9CFF4
:1004400081E08093133EDF91CF911F910F91FF9038
:10045000089580918E3E90918F3E891B990B08954F
:10046000CF92DF92EF92FF920F931F93CF93DF9380
:100470007C018A01EB016B01C40ED51ECC15DD0594
:1004800051F06991D701ED91FC910190F081E02D3F
:10049000C7010995F3CFC801DF91CF911F910F914B
:1004A000FF90EF90DF90CF9008956091243E70E030
:1004B0006C5E714CAC0181E99EE3D2CF20918C3E01
:1004C000203240F021E030E0FC012283338390E0D1
:1004D00080E0089580918D3EE82FF0E0E459F14CE2
:1004E00060838F5F80938D3E80938C3E81E090E0AF
:1004F00008951F93CF93DF93EC0118818AE090E079
:1005000074D4181721F0612F8AE090E076D4CE01E0
:10051000DF91CF911F9108951F93CF93DF93EC014B
:10052000188190E080E061D4181721F0612F90E0ED
:1005300080E063D4CE01DF91CF911F910895CF93D6
:10054000DF93EB0152D48883CE01DF91CF910895E0
:1005500090E0FC01EE5CF04720812F3F79F08C5B4E
:100560009047DC01EC91B0E2EB9FF0011124FC5FBD
:100570009085922381E019F480E008958FEF08952B
:100580001F93CF93DF9300D0CDB7DEB7BE016E5F70
:100590007F4F8AE090E0D3DF8A818F3F29F481E0AA
:1005A0008983CE010196A5DF83E0D2DF11E08111BE
:1005B00010E084E0CDDF811101C0126081E0C8DF6E
:1005C000811101C0146087E0C3DF811101C0186090
:1005D000185F183019F48A8181116DC01982CE011B
:1005E000019687DF1093193E109213081092160897
:1005F00021E02093150810921C08109219081092FF
:100600001E081092903E10928F3E10928E3E1092D5
:100610008D3E10928C3E8091903E81111FC083E0F0
:100620008093260482E08093903E10924B3E10927D
:100630004A3E1092493E1092483E1092473E109218
:10064000463E812F90E0880F991F80931C081092DE
:100650001E0881EE809319082093130886E490E029
:100660008093443E9093453E8CE69EE38093423EC9
:100670009093433E86E590E08093403E9093413EC8
:100680008CE49EE380933E3E90933F3E80E28093D5
:100690003D3E8BED91E080933B3E90933C3E85E563
:1006A00092E08093393E90933A3E0F900F90DF9105
:1006B000CF911F9108958091193E98EF980F903730
:1006C00008F090CF182F8ECFCF93DF9390E0FC01EE
:1006D000EE5CF04720812F3F61F0FC01EC5BF047BE
:1006E000E08130E2E39FF0011124FC5F613021F4EE
:1006F0002183DF91CF910895805F9047EC01A8811D
:10070000AF3F81F0CF014096A80FB92FB11D9FB721
:10071000F89422838C91623041F488608C93258315
:100720009FBFE7CFB0E0A0E0F2CF877F8C93268316
:10073000F7CF61E08CE0C8DF84E0809345048091CE
:10074000400482FD08C09FB7F894809152048860ED
:10075000809352049FBF08951F920F920FB60F927D
:1007600011242F933F934F935F936F938F939F9396
:10077000AF93BF938091303E9091313EA091323E35
:10078000B091333E40912E3E50912F3E9A01285D0C
:100790003F4F283E63E0360798F50296A11DB11D34
:1007A00020932E3E30932F3E8093303E9093313EE7
:1007B000A093323EB093333E8091343E9091353ECB
:1007C000A091363EB091373E0196A11DB11D809398
:1007D000343E9093353EA093363EB093373E82E050
:1007E00080930B0ABF91AF919F918F916F915F9111
:1007F0004F913F912F910F900FBE0F901F90189522
:100800009A01205C33400396A11DB11DC9CF1F92F0
:100810000F920FB60F9211242F933F934F935F9334
:100820006F937F938F939F93AF93BF93CF93EF93E8
:10083000FF93C0911B08C2FF09C010924B3E10925B
:100840004A3E10922D3E84E067DD13C0C6FF2DC0E6
:100850008091463E813051F480914B3EE091403E84
:10086000F091413E90E009951092463EC0FF13C0C2
:1008700060DDFF91EF91CF91BF91AF919F918F91EB
:100880007F916F915F914F913F912F910F900FBE8C
:100890000F901F90189580E480931B0881E03CDD49
:1008A00080911B0885FFE5CFE3CFC7FF5CC0C3FF86
:1008B00008C010924B3E10924A3E10922D3E83E0AB
:1008C000C3CF8091190880668093190880911B0816
:1008D00081FF2CC080914A3E882349F080911B08FB
:1008E00084FF05C082E080931A0881E0ADCF90912B
:1008F0004A3E80912D3E9817A8F4E0914A3E80919F
:10090000423E9091433EE80FF92FF11D8081809384
:100910001D0880914A3E8F5F80934A3E83E080931A
:100920001A08A7CF82E080931A088ECF90914B3E91
:1009300080913D3E981790F480911D08E0914B3EC8
:1009400020913E3E30913F3EE20FF32FF11D808318
:1009500080914B3E8F5F80934B3EE0CF86E080934B
:100960001A0882E071CF85E06FCF1F920F920FB609
:100970000F9211242F938F939F93EF93FF93809166
:100980001508982F9C70C1F08091150894E082FFA3
:1009900093E090932C3E8093150881E08093903EE5
:1009A00010922B3EFF91EF919F918F912F910F907D
:1009B0000FBE0F901F90189586FF46C02091273ECE
:1009C0009091293E8091150884FF10C08091283EA7
:1009D000882351F083E08093140885E080932C3EB7
:1009E00010922B3E81E02BC081E0F5CF8091263E16
:1009F000821760F4E091263EF0E080818093180831
:100A00008091263E8F5F8093263ECCCF80912A3EF8
:100A1000891748F484E08093903E8091253E816060
:100A200080931708BFCF8091283E882359F083E038
:100A30008093140881E080932C3E10922B3E80938B
:100A4000903EB0CF81E0F4CF87FF37C090912A3E2F
:100A50008091293E9817A8F480911808E0912A3EC9
:100A6000F0E0808380912A3E8F5F80932A3E9091B0
:100A7000293E80912A3E8917C0F482E080931408B1
:100A800091CF8091283E882371F087E080931408ED
:100A900082E080932C3E10922B3E81E08093903E2A
:100AA0001092293E7FCF85E0F1CF8091283E8823A8
:100AB00011F087E0BDCF85E0BBCF86E08FCFE1E9C5
:100AC000FEE31282138288EE93E0A0E0B0E084831C
:100AD0009583A683B78386E29FE880839183E6EAC5
:100AE000FEE315828DE99EE386839783148615863F
:100AF0001686178681E083878087118682E0828749
:100B000029E030E02283338323E030E02083318307
:100B10009EE0948324E034E0208B318B828B089517
:100B2000CF93DF9300D0CDB7DEB791E088ED84BFDF
:100B30009093610082E58093020680E18093050630
:100B400080E2809303068091000681608093000616
:100B50009093030A8EEF8093260A8093270A8BE0F6
:100B60008093000A80910A0A826080930A0A78942E
:100B700062E083E0A9DD62E084E0A6DD62E081E07E
:100B8000A3DD62E087E0A0DD61E08CE09DDDD1DDEA
:100B900061E08EE099DDDDDA6B017C01DADA6C1957
:100BA0007D098E099F09683E734081059105B0F368
:100BB0004091A83E5091A93E70E060E08091AC3E2B
:100BC0009091AD3E9CD1FBDA80915000897F80935B
:100BD00050008091500081608093500069E17EE375
:100BE00090E080E0ACDC8091193E8F3F31F488E0EA
:100BF0008093193E89E19EE38FDC8091193E8850F5
:100C0000803730F088E08093193E89E19EE384DCF0
:100C1000B7DC8091193E8093383E01E088248A94A5
:100C2000982CA12CB12C5BE1C52E5EE3D52E69E09A
:100C3000762E9091193E8091383E981749F0809118
:100C4000193E8093383E0983CE01019652DC98DC30
:100C50008091133E882309F4B6C08091183E8130FC
:100C600099F41092183EF601272D11922A95E9F772
:100C70004091A83E5091A93E70E060E08091AC3E6A
:100C80009091AD3E3CD19BDA9091173E8091123EFF
:100C9000981769F09091173E81E0911101C080E0B2
:100CA0008093123E8091173E8823A9F142DD9091F6
:100CB0001A3E8091113E981709F440C080911A3E67
:100CC00011E0180F2091AB3E1217A1F1E090AC3E5D
:100CD000F090AD3E215070E060E049F08F3FF9F4B4
:100CE00030E050E040E0C501B401AFD0B901F701F8
:100CF0004091A83E5091A93ECF018E199F098417BB
:100D00009507B0F44081469FC001479F900D112484
:100D100090833196EDCF60E08CE0D6DCC8CF812F98
:100D200090E0982F88270197622F70E07AD0DFCF6C
:100D30001093AB3E80911A3E8093113E20911D3E50
:100D400040911C3E60911B3E8091A63E9091A73E33
:100D5000892B19F090E080E0BBD92091203E409192
:100D60001F3E60911E3E8091A63E9091A73E029745
:100D700018F081E090E0ACD92091233E4091223ED2
:100D80006091213E8091A63E9091A73E039718F076
:100D900082E090E09DD913DA8091193E8850BE011F
:100DA0008037E8F46E5F7F4F90E080E0C8DB809191
:100DB000193E9A81891729F08983CE010196ACDB0F
:100DC000DFDB1092133E80915000816080935000D1
:100DD0008895809150008E7F809350002ACF6F5F5E
:100DE0007F4F90E080E0ABDBECCF03D08081992790
:100DF0000895FC01E050FC4E0895262FAF93BF9359
:100E0000E0E0F0E1328131FDFDCFDC01A050BC4ECD
:100E10002C932DE924BF23E020830196BF91AF914D
:100E20000895AA1BBB1B51E107C0AA1FBB1FA61731
:100E3000B70710F0A61BB70B881F991F5A95A9F783
:100E400080959095BC01CD010895052E97FB16F471
:100E500000940FD057FD05D01ED007FC02D046F4F9
:100E600008C050954095309521953F4F4F4F5F4FAB
:100E7000089590958095709561957F4F8F4F9F4F06
:100E8000089531D0A59F900DB49F900DA49F800D23
:100E9000911D11240895A1E21A2EAA1BBB1BFD016E
:100EA0000DC0AA1FBB1FEE1FFF1FA217B307E40749
:100EB000F50720F0A21BB30BE40BF50B661F771FA1
:100EC000881F991F1A9469F7609570958095909581
:100ED0009B01AC01BD01CF010895EE0FFF1F0590EE
:100EE000F491E02D0994A29FB001B39FC001A39F8C
:100EF00001D0B29F700D811D1124911D0895DC0158
:100F000001C06D9341505040E0F70895F894FFCF31
:100F100004050607050403020100000102030102A3
:100F20000300000000005E0230022902C801B9017E
:100F3000B8011020408020100804020101020408BA
:100F40000204080100000000010101010101020288
:060F500002020000000097
:100F5600FF000000FFFFFFFFFFFFFFFFFFFFFFFF98
:100F6600FFFF0101840001010008FF0000000000EE
:040F76000000000077
:00000001FF
